:020000040800F2
:1000000000500020A93800087D3700087F3700081D
:10001000813700088337000885370008000000009A
:10002000000000000000000000000000873700080A
:100030008937000800000000A301000871090008CA
:10004000F1380008F1380008F1380008F1380008EC
:10005000F1380008F1380008F1380008F1380008DC
:10006000F1380008F1380008F1380008F1380008CC
:10007000F1380008F1380008F1380008F1380008BC
:10008000F1380008F1380008F1380008F1380008AC
:10009000F1380008F1380008F1380008F13800089C
:1000A000F1380008F1380008F1380008F13800088C
:1000B000F1380008F1380008F1380008F13800087C
:1000C000F1380008F1380008F1380008F13800086C
:1000D000F138000845060008F1380008F13800083A
:1000E000F1380008F1380008F1380008000000007D
:1000F0000000000000000000000000000000000000
:0C01000000000000000000005FF808F1A3
:10010C0010B5054C237833B9044B13B10448AFF345
:10011C0000800123237010BD14000020000000009B
:10012C003C39000808B5034B1BB103490348AFF336
:10013C00008008BD00000000180000203C390008B9
:10014C0072B6704762B67047EFF3108072B67047A4
:10015C0080F31088704730BF704720BF7047B0FAEB
:10016C0080F0704790FAA0F0B0FA80F0704790FAE7
:10017C00A0F0704718484FF0FF010170002080F389
:10018C0009881648016881F3088815484FF080519A
:10019C00016062B6FEE772B6EFF3098028B1203831
:1001AC0080E8F00F0F490968086000B50E488047D9
:1001BC005DF804EB0D480E490A78027009480D49A8
:1001CC000A680260106890E8F00F203080F309880C
:1001DC004EF0040E62B6704722ED00E0CC0B00200E
:1001EC0004ED00E060240020050900088C230020A9
:1001FC00802300206C24002040F0BF6040F40030CD
:10020C00014BD860704700BF00ED00E0C37803B32A
:10021C0010B4154BDA68D243C2F30222C2F10404C3
:10022C000F2323FA02F24178A140837813400B4349
:10023C001B010278DBB20D490A4482F800330378C3
:10024C0003F01F005B090122824041F8232010BCFF
:10025C007047037803F01F015B0901228A402033A9
:10026C00024941F82320704700ED00E000E100E076
:10027C00F0B4CB7803F00F02154613F0100F01D039
:10028C008D7815430B78E3B10668002301E04261D9
:10029C000133072B14D801229A400C8832EA04044B
:1002AC00F6D19C000F27A74026EA070605FA04F4AE
:1002BC002643CC78282CEAD0482CE9D10261E7E718
:1002CC0006600B88FF2B20D94668002302E04261B0
:1002DC0015E00133072B17D803F108040122A240C3
:1002EC000C8832EA0404F4D19C000F27A74026EABC
:1002FC00070605FA04F42643CC78282CE7D0CC78F2
:10030C00482CE6D10261E4E74660F0BC704700007F
:10031C0010B4294B5B6803F00C03042B2BD0082B77
:10032C002CD013B1254B036001E0244B0360224910
:10033C004B68C3F30313224CE35CDAB20368D3407B
:10034C0043604A68C2F30222A25CD2B223FA02F2E0
:10035C0082604A68C2F3C222A25CD2B2D340C360AC
:10036C004A68C2F3813217498A5CD2B2B3FBF2F30A
:10037C00036110BC7047114B0360D8E70E4A5368F9
:10038C005268C3F38343023312F4803F04D10E4A04
:10039C0002FB03F30360CAE7074A526812F4003FFA
:1003AC0004D0094A02FB03F30360C0E7034A02FBD3
:1003BC0003F30360BBE700BF0010024000127A0099
:1003CC00040000200000002000093D0021B1054A76
:1003DC009369184390617047024A936923EA0000BD
:1003EC00906170470010024030B587B004460D464E
:1003FC00038A9BB2CA8823F4405313430382838934
:10040C009BB2898828896A8901430A4323F4B05333
:10041C0023F00C031343A381A38A9BB2AA8923F470
:10042C0040731343A38201A8FFF772FF1E4B9C423B
:10043C0024D0039BA28912F4004F21D103EB830338
:10044C0003EB830329688900B3FBF1F1174BA3FB82
:10045C00012358090501642300FB1313A28912F42C
:10046C00004F16D11B013233104AA2FB0323C3F3F6
:10047C0043132B439BB2238107B030BD049BD9E7B8
:10048C0003EB830303EB830329684900B3FBF1F10E
:10049C00DCE7DA003232054BA3FB0232C2F3421224
:1004AC0042EA0503E6E700BF003801401F85EB5127
:1004BC0029B183899BB243F40053838170478389AC
:1004CC009BB223F400539BB28381704710B4C1F3E9
:1004DC00421401F01F01012303FA01F19C4208D0E0
:1004EC00022C08D0143042B103681943016010BCCF
:1004FC0070470C30F7E71030F5E7036823EA010189
:10050C000160F4E7C1F30801818070478088C0F373
:10051C000800704710B4C1F3421201F01F0401230C
:10052C00A340012A0FD0022A11D0828A92B2134022
:10053C00090A012202FA01F1028892B20A4053B16F
:10054C0062B9002008E0828992B21340F0E7028A77
:10055C0092B21340ECE7002010BC70470120FBE77F
:10056C0000B583B001211020FFF730FF4FF400538A
:10057C00ADF8043010238DF8073003238DF80630C6
:10058C0001A90348FFF774FE03B05DF804FB00BF3C
:10059C000010014070B586B00446012144F20400FD
:1005AC00FFF714FF4FF40073ADF8143003258DF8EA
:1005BC00165018238DF817301D4E05A93046FFF73D
:1005CC0057FE4FF48063ADF8143004238DF81730C8
:1005DC0005A93046FFF74CFE25238DF800308DF829
:1005EC0001508DF8025001258DF803506846FFF735
:1005FC000DFE01940023ADF80830ADF80A30ADF8CB
:10060C000C30ADF810300C23ADF80E30094C01A9AC
:10061C002046FFF7E9FE2A4640F225512046FFF717
:10062C0055FF29462046FFF743FF06B070BD00BFBB
:10063C00000801400038014010B500F0D1F940F23B
:10064C0025510848FFF766FF10B900F0D9F910BD25
:10065C00044C2046FFF75AFFC1B22046FFF752FF69
:10066C00F3E700BF0038014000B585B00B4E002405
:10067C0034600DF10E0501950094234601222146AC
:10068C00204602F0A1FD0122326001950094234620
:10069C002146204602F098FDE8E700BFB401224253
:1006AC0030B58DB000F06AF80DF12E05284601F03A
:1006BC00C7FC2A460121084600F036FAFFF744FD34
:1006CC00194C237801332370FFF742FD089503235F
:1006DC0007930023069305930493802203920C2224
:1006EC000292124A019204220092114A11491248B4
:1006FC0001F0FEFE2946114802F094FAFFF724FDA2
:10070C002378013BDBB223705BB90D4B1B882BB1FB
:10071C00FFF71EFD00F0E0FC0DB030BDFFF718FD3B
:10072C00FAE7FFF715FDF7E768200020F40000203A
:10073C00750600085439000830000020F40A002027
:10074C000828002008B5034B00221A6002F094FF21
:10075C0008BD00BFB80B002010B5FFF7F5FC044630
:10076C001021034800F038F82046FFF7F1FC10BDCB
:10077C00BC0B002008B5FFF7EFFF08BD08B5FFF76D
:10078C00E1FFFFF7F7FF08BD014B1860704700BF92
:10079C00B80B002010B40024234602E041EA0323E6
:1007AC000134032CFAD910F0030404D10AE000F848
:1007BC00011B013A01342AB1032CF8D902E040F8AC
:1007CC00043B043A032AFAD802E000F8011B013A70
:1007DC00002AFAD110BC704708B50A460021FFF771
:1007EC00D9FF08BD08B5024B1B6803B1984708BD7B
:1007FC00FC26002010B40B4B1C68234600220A4830
:10080C000168914204D9002043F8040B0132F6E749
:10081C0001F18041013904EB8101044B196010BCDA
:10082C00704700BF6039000864390008CC0B002009
:10083C0008B5024B1B6803B1984708BD1827002068
:10084C0008B5024B1B6803B1984708BD88230020EC
:10085C0008B5024B1B6803B1984708BD7C240020E7
:10086C0008B5024B1B6803B1984708BD6C200020EB
:10087C0010B4019C02EB84024FF0807442F8044CDB
:10088C0042F8080C1B4842F80C0C4FF0123042F89E
:10089C00100C4FF0033042F8140C4FF0023042F8B9
:1008AC00180C42F81C3C42F8201C4FF0113342F853
:1008BC00243C4FF0103342F8283C4FF0093342F8F7
:1008CC002C3C4FF0083342F8303C4FF0073342F8E1
:1008DC00343C4FF0063342F8383C4FF0053342F8C5
:1008EC003C3C4FF0043342F8403CA2F1400010BCB9
:1008FC00704700BF7D2A000810B5124B1B6803B16E
:10090C00984702F0D3FE104B1B68104A11688B42BB
:10091C0009D0D3F89820821AC3F89420D3F89C40BD
:10092C002244C3F89C20C1F89800D3F8B410084AAC
:10093C001268914201D2C3F8B420054B00221A6010
:10094C0010BD00BF08270020602400206C2400206C
:10095C007024002008B5024B1B6803B1984708BDF2
:10096C008024002008B5FFF7EFFB054A137801330C
:10097C001370FFF7EDFB02F0D7FC00F041F808BD57
:10098C008C2400200138084B1860084A136823F0A7
:10099C007F431360064B1A6842F005021A601A680E
:1009AC0042F002021A60704714E000E020ED00E013
:1009BC0010E000E07047000008B5FFF7C5FB064AE1
:1009CC00136801331360054A136801331360FFF792
:1009DC00BFFBFFF707FFF0E7102700207420002073
:1009EC00054B1B78012B06D1044B1B78F92B02D835
:1009FC000133024A13707047792000208C240020A8
:100A0C00204B1B78012B00D0704710B5FFF79CFBD7
:100A1C0004461D4B1B783BB3013BDBB21A4A1370E7
:100A2C002BBB1A4B1B782BBB01F06CF8184A1070BF
:100A3C0000EB4003174A52F82330174A1360174A49
:100A4C001268934219D0D3F890200132C3F8902049
:100A5C00134A136801331360124B4FF080521A6023
:100A6C002046FFF775FB10BDFFF772FBFBE7FFF7A6
:100A7C006FFBF8E7FFF76CFBF5E72046FFF768FB29
:100A8C00F1E700BF792000208C2400206820002092
:100A9C00802300207C2000206C2400206024002077
:100AAC008824002004ED00E0174B1B7813B9174B7A
:100ABC001B7803B1704710B5FFF746FB044601F0F5
:100ACC0021F8134B187000EB4000124B53F82030F8
:100ADC00114A1360114A1268934210D0D3F8902037
:100AEC000132C3F890200E4A1368013313600D4B8A
:100AFC004FF080521A602046FFF72AFB10BD2046AB
:100B0C00FFF726FBFAE700BF8C24002068200020AA
:100B1C00802300207C2000206C24002060240020F6
:100B2C008824002004ED00E070B506460C461546FE
:100B3C00FFF70AFB012E0AD00B4B00221A7054B19E
:100B4C000A4B1C60FFF704FB00232B8070BD064B87
:100B5C0001221A70F3E7064B1B68064AA2FB03231B
:100B6C00DB08024A1360EDE700280020F82600207D
:100B7C00A4390008CDCCCCCC10B504460F4B1B7857
:100B8C001BB145F68A63038010BD00F0BBFF0C4B14
:100B9C0018700C4B187000EB40000B4B53F82030C6
:100BAC000A4A13600A4A1360044B01221A70FFF7B9
:100BBC00E1FA43F699232380E6E700BF7920002071
:100BCC00802300208C2300207C2000206C2400201B
:100BDC006024002000B58BB000230D4A13600890F0
:100BEC000B2207920693059304930A4A1268039208
:100BFC00094A12680292094A126801923F22009235
:100C0C00074A0849084801F073FC0BB05DF804FB77
:100C1C0010270020703900086C390008683900086A
:100C2C00C5090008D03900086425002010B4C2871B
:100C3C000163002494420BD200234B600B600B61C8
:100C4C004B610B83CB61886020310134A4B2F1E796
:100C5C0010BC704738B14268C1F8C02082689268F5
:100C6C00126AC261704791F83430022B05D0072B01
:100C7C0007D0064BC1F8C0307047054BC1F8C030E7
:100C8C007047044BC1F8C030704700BFF8390008FA
:100C9C00E4390008EC390008054BC1F8C030836812
:100CAC001BB19B681B6AC3617047014BC3617047E2
:100CBC00F839000810B48B6893F83740038943B9AE
:100CCC000123038100234B600B600160416010BC69
:100CDC00704701330381036833B19A6892F8372067
:100CEC00A24201D85B68F7E733B11A6852B10A60C7
:100CFC004B6051601960EAE74B6043680B605960C8
:100D0C004160E4E719600A604B600160DFE703892A
:100D1C00012B06D00B6873B14A688AB15A60136014
:100D2C0002E00023036043600389013B038100233D
:100D3C004B600B6070474B6800221A600360F3E74E
:100D4C005A604360F0E770B50646056BC48F44B13A
:100D5C00E86829460830FFF7DAFF2035013CA4B2D9
:100D6C00F5E70023F387336370BD30B40C6BC98F88
:100D7C0059B1E568854203D02034013989B2F7E7CF
:100D8C00206162612383029BE36130BC70470000E9
:100D9C0000233F2B10D810B4084A03EB4301880002
:100DAC001418002121811150024451600133DBB22F
:100DBC003F2BF1D910BC7047704700BF7C2000203E
:100DCC0010B50446FFF716FD0023474A1370474A37
:100DDC001370474A1370474A1360474A1360474AD7
:100DEC001370474A1370474A1370474A1360474AB7
:100DFC001360474A1360474A1370474B1B68474AB6
:100E0C00A2FB0323DB08464A1360464B1B684BB11D
:100E1C00454A126822B905E0013B002142F8041B47
:100E2C00002BF9D10023414A1360414A1360414A17
:100E3C001360414A1360414A1360414A1360414AAE
:100E4C001360414A137000F051FEFFF7A1FF2046DA
:100E5C0000F0ECFA238803B110BD204600F086FDAB
:100E6C002388002BF8D1204600F0A6FD2388002B08
:100E7C00F2D1204600F02EFE2388002BECD1204628
:100E8C0000F074FE2388002BE6D1204600F0D8FE3B
:100E9C002388002BE0D1204601F0B6FA2388002BE2
:100EAC00DAD1204600F0E8FC2388002BD4D1204670
:100EBC00FFF790FE2388002BCED1204601F05EFF79
:100ECC002388002BC8D1204601F016F92388002B6B
:100EDC00C2D1204602F04AFA2388002BBCD100F084
:100EEC00A4FAFFF767FDB7E78C24002079200020D7
:100EFC0068200020602400206C2400208C2300201B
:100F0C00802300206A2400205C2400202427002059
:100F1C007024002000280020A4390008CDCCCCCCB3
:100F2C00F826002064390008603900088823002066
:100F3C007C2400206C200020FC2600201827002098
:100F4C0008270020802400207820002030B490F85E
:100F5C00373003EB4301134A02EB8102128972B959
:100F6C00104A02EB8104012525810024C460046130
:100F7C0042F8210002EB8102506030BC70470949F5
:100F8C0003EB4304A50001EB8404013222814A598E
:100F9C00C260002202614A59106103EB430341F81D
:100FAC002300EAE77C20002030B490F8373003EBC4
:100FBC004301114A02EB8102128972B90E4A02EB0B
:100FCC008104012525810024C460046142F82100BC
:100FDC0002EB8102506030BC7047074903EB4304BD
:100FEC0001EB8404013222810022C260626802613A
:100FFC00D0606060EFE700BF7C20002010B5044695
:10100C0090F8370000F090FD94F83720054B1B78D2
:10101C009A4203D02046FFF799FF10BD2046FFF7F8
:10102C00C3FFFAE78C2300200389012B18D9022B6C
:10103C0009D1036842681A610021D9601161D3603B
:10104C0002604360704710B403684168DA6800249A
:10105C001461DC601961CB600260436010BC7047A6
:10106C007047000038B5044690F837300569C268FF
:10107C0075B103EB4301174800EB81010889013876
:10108C000881EA601AB3156100232361E36038BD5F
:10109C0072B1104D03EB430105EB81010889013856
:1010AC0008810021116103EB430345F82320EBE792
:1010BC00084A03EB43018D0002EB810100200881FB
:1010CC005051486094F8370000F03EFDDCE74D606D
:1010DC00DAE700BF7C20002008B5FFF735F80B4B92
:1010EC0000221A700A4B0B4A1360D3F8902001327D
:1010FC00C3F89020084A136801331360074B4FF074
:10110C0080521A60FFF724F808BD00BF802300202E
:10111C002C2600206C2400208824002004ED00E004
:10112C0008B5054B1B78012B00D008BD02F0BEFAA8
:10113C00024B1860F9E700BF682000205C240020F7
:10114C0038B50446124B1B783BB9124B1B78012B5C
:10115C0007D045F68963038002E046F662530380AC
:10116C0038BD0D4B1B78F92B03D945F209230380AD
:10117C00F6E7FEF7E9FF0546074A137801331370CB
:10118C00FFF7CEFF2846FEF7E3FF00232380E7E7B7
:10119C008C240020792000206820002008B50B4BFF
:1011AC001B7803B108BD02F081FA094B1B68C01A09
:1011BC00084B1B68834201D2064B1860064B1B6818
:1011CC008342EFD2044B1860ECE700BF682000208C
:1011DC005C240020242700207024002038B504460D
:1011EC00174B1B783BB9174B1B78012B07D045F6D7
:1011FC008963038002E046F66553038038BD124BC9
:10120C001B781BB946F664530380F7E7FEF79CFF87
:10121C0005460D4A1378013BDBB213704BB9FFF74F
:10122C00BDFF2846FEF794FFFFF73EFC002323800A
:10123C00E4E7FEF78DFF46F663532380DEE700BF3D
:10124C008C240020792000206820002038B51D4B0C
:10125C001B78012B00D038BD0446FEF775FF054600
:10126C002368DBB1184A93421BD09A6D0AB1013A3C
:10127C009A659B6DC3B92389012B19D9134B1B7824
:10128C00D3B92046FFF7D0FE23685A6DC2B9104A75
:10129C0012689A652846FEF75BFFDCE7FEF758FFFD
:1012AC00D9E7FEF755FFD6E72846FEF751FFD2E700
:1012BC002846FEF74DFFCEE72846FEF749FFCAE762
:1012CC009A65E7E7002800206425002068200020AC
:1012DC00F826002010B582B0044639B9022380F8F4
:1012EC0036302046FFF7BEFE02B010BD0DF10603EE
:1012FC000222204601F08EFDBDF806301BB90323F7
:10130C0084F83630EDE7022384F83630E9E7000044
:10131C0070B505460C461249086880F83420002246
:10132C0080F835201946FFF7D5FF94B104F1080673
:10133C00EC60012229460A4B1868FFF777FC294616
:10134C003046FFF7B7FC064B19682046FFF782FCC6
:10135C0070BD034B1B680022DA871A63F3E700BFEA
:10136C006024002010B5044601F0DEFD94F8363000
:10137C0013F0040F00D010BD2046FFF73FFEFAE734
:10138C0030B583B005460C4691F83610032920D9A8
:10139C000639C9B201291ED894F8341003293ED05D
:1013AC00E265A4F86030069B2364204601F0BCFD86
:1013BC0035B12046FFF7C7FC21462846FFF76CFCE9
:1013CC00042384F83630002384F8353084F8343024
:1013DC0001E0022901D203B030BD94F83410032986
:1013EC0017D0E265A4F86030069B236435B1204623
:1013FC00FFF7A9FC21462846FFF74EFC2046FFF7D5
:10140C00B1FF002384F8363084F8353084F834305A
:10141C00E1E7069900912146FFF7A7FCE6E706995C
:10142C0000912146FFF7A1FCBFE770470023034A58
:10143C001360034A13800380704700BF20270020ED
:10144C001C27002010B50446C0F88410002380F837
:10145C00353080F83430026490F83630032B07D9DD
:10146C00063BDBB2012B05D8042380F8363001E0B3
:10147C00022B03D22046FFF766FC10BDFFF772FF6C
:10148C00002384F83630F5E7F8B505460E461446C9
:10149C001F46FEF759FEB4F5004F15D007D89CB186
:1014AC00012C08D1296A21EA060129620FE048F2D1
:1014BC0001039C42F6D0FEF74BFE45F62563069AD7
:1014CC00138000242046F8BD296A314329626F62DB
:1014DC002B8A43B1454A137801331370FEF738FE5B
:1014EC00AE68B06810E0FEF733FE0023069A138056
:1014FC002C6AE7E72A6AD0F8803002EA03019343AA
:10150C0020D0002E5AD0B068002857D07668B0F89A
:10151C00881001F00F010139072934D801A353F8C1
:10152C0021F000BF6B150008811500089315000809
:10153C000115000893150008931500089315000871
:10154C00591500083A46FFF77DFFDAE7296AD0F80B
:10155C0080301940D5D03A46FFF774FFD1E72A6A9C
:10156C00D0F8803023EA02011A42CAD13A46FFF77A
:10157C0069FFC6E72B6AD0F880109943C1D03A4670
:10158C00FFF760FFBDE7FEF7DFFD184A1378013B5C
:10159C00DBB213707BB9164B1B884BB1FEF7D8FD31
:1015AC00FFF79AFD43F6FF23069A1380002489E780
:1015BC00FEF7CEFDF6E7FEF7CBFDF3E7FEF7C4FD35
:1015CC000A4A1378013B1370FEF7C2FD14F4004F66
:1015DC0008D0FEF7B9FD2C6AFEF7BAFD0023069A77
:1015EC0013806FE7FFF760FAF3E700BF6820002075
:1015FC00082800202DE9F8468246894616461F46E3
:10160C00FEF7A2FD0546204B1C88204B1B889C42F4
:10161C0031D20134A4B21C4B1C801D4B1B889C4244
:10162C0001D91B4B1C801B4A1368C3F800A013681C
:10163C00C3F80890DE601F8208995961BDF8241028
:10164C0019830A99D9615B681360134B01221A81C3
:10165C00124A1A605A60002000F066FA104B1B7890
:10166C000BB1104A137000230B9A13802846FEF717
:10167C006FFDBDE8F8860C4A13880133138044F2E1
:10168C0053630B9A1380F1E708280020783900087F
:10169C00682400207C2300207C2000202C260020A5
:1016AC008C2300206A2400201E27002030B585B032
:1016BC00494B1C682368494A934267D030D8A2F141
:1016CC007E72A2F5FB32934252D00ED9444A934219
:1016DC0024D1A068228A238BE569E1680DF10E0400
:1016EC000194009501F092F818E002F17A4202F5AB
:1016FC007C3202F2FF12934232D002F1BE6202F54A
:10170C00802202F2F362934208D1A0686169228BB5
:10171C00E3690DF10E040094FFF7B6FE05B030BD81
:10172C00304A93422CD002F1F87202F2FD1293422D
:10173C000BD1A068228A238BE569E1680DF10E04B8
:10174C000194009500F01EFAE8E7A2F10222FD3A9E
:10175C009342E3D10DF10E01A06801F0F7F8DDE73B
:10176C000DF10E03E269218BA06800F075FAD5E744
:10177C000DF10E03E269218BA06801F089F9CDE728
:10178C000DF10E01A06801F04DFAC7E7164B187861
:10179C0000EB4000154B03EB8000FFF757FD0E4BA1
:1017AC001A680DF10E03D2690021114801F070F98D
:1017BC00104A1368013B1360002BAFD10E4B1A6813
:1017CC000C4B1A6001F072FF02460DF10E03002162
:1017DC000A4801F05DF9A1E7602500205449434B0C
:1017EC00544D5347545355536A2400207C200020F9
:1017FC00902300200C280020FC270020902400209F
:10180C0010B518E0184B002018811860586000F0D3
:10181C009BF92046FEF79CFCFFF746F90BE0FEF720
:10182C0093FC124B1A6852681A60114A1388013BD8
:10183C001380FEF78DFCFEF787FC04460C4B1B88CF
:10184C00002BDFD02046FEF783FC01F02FFF04466F
:10185C00FFF72CFF01F02AFF001B064B1B6883428D
:10186C00DDD2044B1860DAE77C20002060250020D4
:10187C00082800205424002070B58AB02B4B00227D
:10188C001A802B4B1E6856B12A4B1D88012D0AD984
:10189C000021294B196006F12004334614E044F270
:1018AC005263038029E044F25463038025E0234A09
:1018BC001A6000229A60DA601A825A611A835C609C
:1018CC0020332034013189B28D42F0D843F81C6C9E
:1018DC001B4B1E601B4B1E6000231B4A13801B4AB4
:1018EC0013801B4B1A6852B11A4B19681A4B1B68A0
:1018FC00994208D244F2566303800AB070BD44F298
:10190C0055630380F9E7089003230793002306939C
:10191C000593049303911149096802910192009374
:10192C000F4A1049104800F0E3FDE6E71E2700209F
:10193C007439000878390008542400204E4F4E4565
:10194C007C2300206025002008280020682400202B
:10195C007C39000884390008A03900088039000857
:10196C000D180008FC3900082C2600200023034A1F
:10197C001360034A13800380704700BFF4260020D5
:10198C002A27002010B400F11004013989B2002379
:10199C008B4209D20460002242600281C260103086
:1019AC00103401339BB2F3E70023036043600381DF
:1019BC00C36010BC7047000070B506460C4B1C6829
:1019CC0034B10C4B1D883DB945F21D73038070BDBD
:1019DC0045F21E730380FAE729462046FFF7D2FF33
:1019EC00054B1C609D800022DA801A813280EEE764
:1019FC00883900088C39000854250020034640899A
:101A0C00A0B110B419680A4A14680C6059681160C6
:101A1C005989D488641AD4809488214491800022F6
:101A2C005A819A811A605A6010BC7047704700BF87
:101A3C00542500200181002343818381036043608E
:101A4C0070470000F0B447890489A74226D29C460F
:101A5C001F4CA488002C26D01D4E35682B68336093
:101A6C00013CB480F4880134A4B2F4803689B442C9
:101A7C0001D9174E3481DFB90560456001234381DC
:101A8C00848943899C4200D2838169602A81049BAA
:101A9C00EB600023059A1380F0BC704746F2935319
:101AAC00059A1380F8E745F21D73059A1380F3E746
:101ABC001CF0100F08D103681D6000232B6005601B
:101ACC00438901334381DBE743682B604560F7E7CB
:101ADC00542500200023034A1360034A138003801B
:101AEC00704700BF042800202C270020002304E0AE
:101AFC00034A002142F823100133012BF8D9704717
:101B0C006020002010B50024064B186818B920344A
:101B1C00E4B20433F9E7FEF722FBC0B22044C0B2B2
:101B2C0010BD00BF60200020410900F01F004FF0E5
:101B3C00004323FA00F0034A52F82130034342F8E1
:101B4C002130704760200020410900F01F004FF049
:101B5C00004323FA00F0044A52F8213023EA000330
:101B6C0042F82130704700BF602000200023034A58
:101B7C001360034A13800380704700BF282600209F
:101B8C00642400202DE9F04B82B00646884691462D
:101B9C009B460A9FFEF7D8FA274A13780133137035
:101BAC00FEF7D6FA348A84B11BF4007F00D10124ED
:101BBC00B5686CB3A9686D6800974B4642463046D1
:101BCC00FFF7DEFB013CA4B2F3E71BF0100300D0DF
:101BDC0010230B9A019200974A46414606F12000C9
:101BEC00FFF730FFFEF7B0FA134A1378013BDBB274
:101BFC00137053B9114B1B8823B1FEF7A9FAFFF7E9
:101C0C006BFA13E0FEF7A4FA10E0FEF7A1FA0DE070
:101C1C00FEF79AFA084A1378013B1370FEF798FA0C
:101C2C001BF4004F05D000230B9A138002B0BDE8C3
:101C3C00F08BFEF739FFF6E768200020082800201B
:101C4C000023034A1360034A13800380704700BFCC
:101C5C0084230020F02600202DE9F04383B00546B4
:101C6C00894617469846FEF76FFA2B8ABBB92C6A41
:101C7C00B4F1FF3F0BD001342C626F62FEF768FAAF
:101C8C000023A8F80030204603B0BDE8F083FEF72F
:101C9C005FFA46F6C553A8F800300024F3E7164A5D
:101CAC00137801331370FEF753FA19F4007F0DD03B
:101CBC002C8AAE6864B1B1687668009700231A4626
:101CCC002846FFF75DFB013CA4B2F3E70124F0E7E3
:101CDC002C6AFEF739FA084A1378013B1370FEF7A9
:101CEC0037FA19F4004F03D00023A8F80030CAE7E4
:101CFC00FEF7DAFEF8E700BF68200020F8B50746CB
:101D0C00FEF722FA0023274A1360274A1380274A3A
:101D1C001380274A1360274A1360274A1360274A07
:101D2C001360274A1381FEF713FAFEF70DFA254BC1
:101D3C001C68FEF70DFAF4B1FEF706FA064600250C
:101D4C00C4F8B450A567C4F8A850C4F89050A4F8CF
:101D5C008C50A4F88E50C4F89C50C4F8A05001F0DC
:101D6C00A5FCC4F89800A4F87050D4F8BC403046D8
:101D7C00FEF7EEF9DFE7FEF7E7F9134B1C68FEF709
:101D8C00E7F906E0FEF7E0F90023A385A469FEF766
:101D9C00DFF9002CF6D101F0E3F801F0D3FB0023BE
:101DAC003B80F8BD542400206824002066240020C9
:101DBC0070200020F8270020782400202427002001
:101DCC005425002074240020282600202DE9F04101
:101DDC0082B007E0884B18680DF106020021400024
:101DEC0001F09AF9854B1B78012BF3D10DF106000C
:101DFC00FFF784FF824B1B687F4A1268934205D918
:101E0C00B3FBF2F8B8F1000F40F0C6807D4AA2FB9C
:101E1C0003234FEAD308BFE0012042F21073B2FB58
:101E2C00F0F203FB01F3B3FBF2F3C3F51C531033D5
:101E3C009BB2754A1380754A1288934211D9734A22
:101E4C0013800EE00A204FF47A73E8E7642003460F
:101E5C00E5E742F210700123E1E76B4B42F210729E
:101E6C001A80FEF7E5FCFEF76FF9694B1C68FEF76C
:101E7C006FF900250AE0FEF76BF9D4F8A0301D4489
:101E8C00FEF762F9D4F8BC40FEF762F90CB3FEF72A
:101E9C005BF9604E337801333370FEF759F9D4F89F
:101EAC009C30C4F8A0300023C4F89C30FEF74CF9E9
:101EBC003378013BDBB2337043B9574B1B88002B93
:101ECC00D9D0FEF745F9FFF707F9D6E7FEF740F949
:101EDC00D3E73DB3514B9D420CD9514B9D4216D982
:101EEC00504B9D4217D3504B9D4217D80A234FF4A9
:101EFC007A7602E042F210730126B5FBF6F61D4627
:101F0C00FEF722F9424B1C68FEF722F91BE04FF456
:101F1C007A730A26F1E764231E46EEE7012342F2A8
:101F2C001076EAE70126EBE70DF1060304F1AC02AB
:101F3C0004F1B001204600F0E3F9FEF705F9D4F8FE
:101F4C00BC40FEF705F9A4B1D4F8A03005FB03F3AF
:101F5C00B3FBF6F39BB242F21072934200D91346D4
:101F6C00A4F88C30B4F88E209A42DDD2A4F88E30CE
:101F7C00DAE72E4B1B78012B35D001F097FBC71BF2
:101F8C002B4B1B68BB4201D2294B1F600DF1060283
:101F9C000021404601F0C0F801F088FB0746FEF72F
:101FAC00D3F8244C244B1A68226000221A60FEF7E6
:101FBC00CFF8224B1A6821688A427FF64EAF174B36
:101FCC009A427FF629AF164B9A427FF63BAF154BE0
:101FDC009A42FFF43BAF144B9A423FF63AAF4FF4A0
:101FEC007A700A231BE7114B00221A700DF10600C0
:101FFC00FFF784FEC1E700BF903900088123002061
:10200C00A4390008CDCCCCCC84240020662400203C
:10201C007424002068200020082800207F1A060065
:10202C00FF083D00005A6202FF83D71728270020C3
:10203C00702000201427002074200020002700208E
:10204C0030B583B004460DF10601234800F054FE70
:10205C00BDF8063013B1238003B030BD0DF106027C
:10206C000021022001F058F8BDF806300BB1238096
:10207C00F2E7FEF769F8194B00221A60FEF768F8D0
:10208C00174B1B68174A1068834202D9B3FBF0F058
:10209C0018B91548A0FB0330C0080DF10602002149
:1020AC0001F03AF80DF106010B4800F0B3FCBDF855
:1020BC0006300BB12380CFE7FEF746F800250B4B1B
:1020CC001D60064B1A680A4B1A600A4B01221A70E3
:1020DC00FEF73EF82580BFE79024002074200020F6
:1020EC00A439000890390008CDCCCCCC702000204D
:1020FC00002700208123002000231C4A13601C4A67
:10210C0013601C4A13601C4A13701C4A13701C4B3E
:10211C001A6882B11B4B19681B4B1B6899420ED372
:10212C0010B58AB0194B1C783E2C0CD946F62A6394
:10213C0003800AB010BD46F62B630380704746F649
:10214C002C630380704708900323079300230693A6
:10215C000593049303910E4909680291019200942E
:10216C000C4A0D490D4800F0C3F9E2E77420002039
:10217C00142700200027002081230020282700207E
:10218C00943900089C390008A03900088E390008E1
:10219C0098390008D91D0008183A0008302700208B
:1021AC002DE9F8430C461E465249097851B90746A9
:1021BC00904674B1B4F5004F0BD045F625633380CF
:1021CC00002503E046F2AE13338000252846BDE817
:1021DC00F883B8F1000F02D00023C8F80030FDF7E7
:1021EC00B3FF8146444B1B685D6C55BB14F4004F28
:1021FC0043D1424B1B78002B45D1404C013323700B
:10220C00FDF7A6FF3B46072200210846FFF780F8A2
:10221C00FDF79AFF2378013B2370FDF799FFFEF73A
:10222C0043FCFDF791FF0446334B1A6892F83530A6
:10223C00012B4BD0032B53D05BB346F62E6333806C
:10224C003DE0013D5D64B8F1000F02D01B6CC8F895
:10225C00003001F02BFA284B1B681A6C801AC3F85B
:10226C00A400D3F8A820904201D9C3F8A80048468E
:10227C00FDF76EFF00233380A8E7FDF769FF46F2F8
:10228C00B0133380A2E7FDF763FF46F66353338048
:10229C009CE7B8F1000F10D0136CC8F8003001F0B7
:1022AC0005FA154B1B681A6C801AC3F8A400D3F8F6
:1022BC00A820904201D9C3F8A800002333800E4B0C
:1022CC001B685D6C2046FDF743FF7FE7B8F1000FFC
:1022DC0002D0136CC8F8003046F2A9133380EEE735
:1022EC00B8F1000F02D00023C8F8003047F2D92310
:1022FC003380E4E78C240020602400206820002038
:10230C002DE9F0419846244B1B78B3B905460F468E
:10231C001646C1B1E2B1FDF717FFF5B12B68FBB161
:10232C00AB8F13F0010F25D0FDF712FF6C6A002064
:10233C0023684BBB04340130FAE747F25913A8F871
:10234C000030BDE8F08146F2D523A8F80030F8E75C
:10235C0046F2D523A8F80030F3E7104B1D68DDE7F3
:10236C00FDF7F6FE00233B60336047F25213A8F8EA
:10237C000030E6E7FDF7ECFE00233B60336047F2EC
:10238C005413A8F80030DCE73860AB6B181A3060D7
:10239C000023A8F80030D4E78C240020602400200F
:1023AC000023C0F8B830064B1B6833B1C0F8BC3002
:1023BC00C3F8B800024B18607047C0F8BC30F9E79E
:1023CC0074240020D0F8B820D0F8BC3052B19BB1A6
:1023DC00C2F8BC30C3F8B8200023C0F8BC30C0F839
:1023EC00B8307047074A136013B10022C3F8B82005
:1023FC000023C0F8BC307047C2F8BC30C0F8B8300D
:10240C00704700BF742400200023044A1360044A60
:10241C001380044A13600380704700BF74240020AB
:10242C008E2400208824002038B504460025056041
:10243C0085604560C560056145618561C5612A4B54
:10244C00036245628562C5620564C565A0F860508B
:10245C0029466430FFF7EEFA6567A567C4F880502B
:10246C00A4F88850C4F88450ADB300256564C4F852
:10247C00A450C4F8A850A56384F88A50C4F8B0508E
:10248C00C4F8AC50A5874FF00043A364E564256500
:10249C006565A565A4F88C50A4F88E50C4F89050CE
:1024AC00C4F8945001F002F9C4F89800C4F89C5098
:1024BC00C4F8B45084F8345084F8355084F836504D
:1024CC00402384F83730C4F8B850C4F8BC50074BDC
:1024DC00C4F8C03038BD05F11E0304EB83030022A1
:1024EC005A600135EDB2BFE72C3A0008F839000804
:1024FC002DE9F04F83B004469DF83090BDF84CA008
:10250C006F480578EDB9884617461E4604B322B3CA
:10251C000D9B3BB36B4B1B680F9A934227D80F9BB9
:10252C000E9A934228D9B9F13F0F2AD8B9F1000F6E
:10253C002CD1654B9C4229D046F27323149A1380FC
:10254C0003E047F24A13149A138003B0BDE8F08FEE
:10255C0047F2AD13149A1380F7E747F24F13149A0E
:10256C001380F2E746F62F63149A1380EDE746F6D4
:10257C003063149A1380E8E746F63163149A13809B
:10258C00E3E746F27323149A1380DEE7B9F13F0FA9
:10259C0007D14E4B9C4204D046F27323149A1380FD
:1025AC00D3E72046FFF740FF0023149A13801AF05C
:1025BC00010F02D01AF0020F5AD10D9B0E9A03EBA9
:1025CC00820BCDF804A00F9B00935B460D9A31460D
:1025DC003846FEF74DF9A762E662C4F8208084F80D
:1025EC0037902060C4F808B0119B6365002B49D16B
:1025FC00374B1B68A365129B63600D9B63620F9B3B
:10260C00A363A4F83CA0002D3FD0BDF8401004F10A
:10261C006400FFF70FFA2046FEF712F9FDF794FD60
:10262C002C4A137801331370FDF792FD94F83700A0
:10263C00FFF77AFA2046FEF7B7FC2046FFF7B0FE0C
:10264C00254A138801331380244B1B78012B2BD084
:10265C00FDF77AFD1F4A1378013BDBB2137003BB05
:10266C001F4B1B88D3B1FDF773FDFEF735FD6CE7EF
:10267C000D9A00230F998B429FD2002142F8041B24
:10268C000133F7E7119BA365B5E705F11E0304EBD6
:10269C00830300225A600135EDB2B4E7FDF758FD13
:1026AC0053E7FDF755FD50E7FDF74EFD094A13784A
:1026BC00013B1370FDF74CFDFEF7F6F945E700BF43
:1026CC008C240020A03900082C2600206425002032
:1026DC00F8260020682000208E240020792000207D
:1026EC000828002038B50D46414B1B78CBB9044661
:1026FC00404B984219D0404B98421AD0E8B1FDF7A4
:10270C0023FD3E4A137801331370FDF721FD94F835
:10271C003630072B52D8DFE803F0173B3F3F1A3B0C
:10272C003F3F47F24E130B8031E047F24C130B80C6
:10273C002DE047F24D130B8029E0FDF705FD304BE2
:10274C001C68FDF705FDDAE72046FEF78BFC04F16B
:10275C006400FFF753F92046FEF77AF82046FFF79E
:10276C0031FE284A1388013B13802046FFF75CFE9C
:10277C00FF2384F83630FDF7E7FC204A1378013B41
:10278C001370FDF7E5FC00232B80FEF78DF938BDA7
:10279C00204600F0C9FBDAE7204600F0C5FB94F8B0
:1027AC003430012B06D05AB2002AD0D0033BDBB216
:1027BC00032BCCD82046FEF7C6FAC8E7FDF7C4FCBD
:1027CC000E4A1378013BDBB213706BB90E4B1B88AE
:1027DC003BB1FDF7BDFCFEF77FFC46F62D632B806D
:1027EC00D5E7FDF7B5FCF8E7FDF7B2FCF5E700BF60
:1027FC008C240020642500202C260020682000203A
:10280C00602400208E240020082800202DE9F043AD
:10281C0083B004460E4617469846DDF82C90FDF71B
:10282C0093FC474B1D7801351D70FDF791FC64B18D
:10283C000023A9F8003094F83630072B66D8DFE86F
:10284C0003F007072A2A07072A2A3E4B1C68EFE7E2
:10285C00CDF804900A9B009343463A46314604F166
:10286C006400FFF7EFF8FDF76FFC354A1378013B76
:10287C00DBB2137063B9344B1B8833B1FDF768FCC2
:10288C00FEF72AFC03B0BDE8F083FDF761FCF9E725
:10289C00FDF75EFCF6E794F83430022B1AD0CDF835
:1028AC0004900A9B009343463A46314604F1640077
:1028BC00FFF7C8F8FDF748FC214A1378013BDBB25F
:1028CC00137003BB204B1B88D3B1FDF741FCFEF703
:1028DC0003FCD7E70A9B00933B4632462146002077
:1028EC00FEF74EFDFDF730FC154A1378013B1370D3
:1028FC00FDF72EFC18F4004FC4D1FEF7D5F8C1E754
:10290C00FDF726FCBEE7FDF723FCBBE7FDF71CFC3F
:10291C000B4A1378013BDBB2137073B90A4B1B885B
:10292C0043B1FDF715FCFEF7D7FB46F62D63A9F86E
:10293C000030A7E7FDF70CFCF7E7FDF709FCF4E71F
:10294C0068200020602400200828002038B50446A8
:10295C000D46FDF7F9FB00232B8094F83630072B3E
:10296C0050D8DFE803F0040404040C283542FDF7CA
:10297C00EFFB47F253132B80FEF796F838BD244A31
:10298C00137801331370FDF7E3FB94F88A30013BA5
:10299C00DBB284F88A3043B1FDF7D6FB1C4A1378BE
:1029AC00013B1370FDF7D4FBE6E784F83630204684
:1029BC00FEF7D8FCF0E794F88A30013BDBB284F8E0
:1029CC008A3013B9012384F83630FDF7C1FBD3E705
:1029DC0094F88A30013BDBB284F88A3013B90223B5
:1029EC0084F83630FDF7B4FBC6E794F88A30013B27
:1029FC00DBB284F88A3013B9032384F83630FDF740
:102A0C00A7FBB9E7FDF7A4FB46F62D632B80B5E7D2
:102A1C006820002030B585B004460D46FDF794FBC8
:102A2C0074B1104B1B68A3420AD0FDF791FB0E4BFF
:102A3C001B785BB929462046FFF788FF05B030BDEF
:102A4C00FDF786FB47F257132B80F7E7039500221F
:102A5C00029201920092134621460448FEF7CAFDE9
:102A6C00ECE700BF602400208C2400205452455316
:102A7C0000B583B0054B1868FDF7F2FE0DF10601A9
:102A8C000020FFF72FFE03B05DF804FB602400204C
:102A9C00F0B583B004460F4616461D46FDF754FBB1
:102AAC005D4A137801331370FDF752FB6CB1266449
:102ABC0000232B8094F83630072B00F29280DFE84D
:102ACC0003F007073F3F07073F3F544B1C68EEE7F7
:102ADC00636CB3F1FF3F13D05D1C6564FDF734FBF1
:102AEC004D4A1378013BDBB2137033BB4C4B1B8844
:102AFC0003B3FDF72DFBFEF7EFFA284603B0F0BD4C
:102B0C00FDF722FB444A1378013BDBB2137073B917
:102B1C00434B1B8843B1FDF71BFBFEF7DDFA46F672
:102B2C00C5532B800025E8E7FDF712FBF7E7FDF70F
:102B3C000FFBF4E7FDF70CFBDFE7FDF709FBDCE728
:102B4C0094F83430072B16D0636CB3F1FF3F28D0C8
:102B5C005D1C6564FDF7F8FA2F4A1378013BDBB274
:102B6C001370002B3AD12E4B1B88A3B3FDF7F0FA50
:102B7C00FEF7B2FAC1E7009600231A462146184622
:102B8C00FEF7FEFB656CFDF7DFFA234A1378013B79
:102B9C001370FDF7DDFA17F4004FAED1FDF784FF8B
:102BAC00ABE7FDF7D1FA1C4A1378013BDBB213708B
:102BBC0073B91B4B1B8843B1FDF7CAFAFEF78CFAAD
:102BCC0046F6C5532B80002597E7FDF7C1FAF7E7CA
:102BDC00FDF7BEFAF4E7FDF7BBFA8EE7FDF7B8FA9E
:102BEC008BE7FDF7B1FA0C4A1378013BDBB213709B
:102BFC0073B90B4B1B8843B1FDF7AAFAFEF76CFABD
:102C0C0046F62D632B80002577E7FDF7A1FAF7E751
:102C1C00FDF79EFAF4E700BF682000206024002036
:102C2C000828002038B504460D46FDF78DFA7CB116
:102C3C002F4B1B68A3420ED000232B8094F8363008
:102C4C00072B4ED8DFE803F0112A333C45454545A8
:102C5C00274B1C68ECE7274B1B78002BECD0FDF7BF
:102C6C0077FA46F663532B8017E0224D2B7801330D
:102C7C002B70FDF76DFA042384F83630012384F8A9
:102C8C008A302046FEF7EEF9FDF75EFA2B78013B11
:102C9C002B70FDF75DFAFDF707FF38BD052384F8AF
:102CAC003630012384F88A30FDF752FAF3E7062315
:102CBC0084F83630012384F88A30FDF749FAEAE7C4
:102CCC00072384F83630012384F88A30FDF740FA64
:102CDC00E1E794F88A30013384F88A30FDF738FA4A
:102CEC00D9E7FDF735FA46F62D632B80D5E700BF03
:102CFC006024002068200020114B98420CD0114B0E
:102D0C0098420DD000B585B00F4B1B7863B9FFF717
:102D1C0089FF05B05DF804FB47F25B130B8070472D
:102D2C0047F25C130B8070470391002202920192D0
:102D3C000092134601460548FEF75CFCE9E700BF2C
:102D4C00642500202C2600208C240020545355533D
:102D5C000023084A12889A420AD9074A002142F8ED
:102D6C00331002EBC3029180D18001339BB2F0E7A8
:102D7C00704700BFB8390008D00F002010B58AB0DA
:102D8C0004460023194A1360194A1360FFF7E0FF49
:102D9C00184B1A686AB1184B1968184B1B68994282
:102DAC000BD3174B18783E280CD947F211232380EC
:102DBC0006E047F21223238002E047F2132323801C
:102DCC000AB010BD08940B230793002306930593B8
:102DDC00049303910B4909680291019200900A4AED
:102DEC000A490B48FFF784FBEAE700BF04270020E1
:102DFC00F8270020AC390008B4390008A0390008C5
:102E0C00A8390008B0390008F9300008343A000835
:102E1C009023002070B4042A1ED000293FD0082A29
:102E2C002CD03E4A12680A44C2640165C16C3C4A0B
:102E3C001288B1FBF2F402FB1414A4B2394E06EB67
:102E4C00C406B288002A32D142618261354A42F806
:102E5C0034000121B18043E0304A12688A1A541EB2
:102E6C0014F5803F02D8C1640265DFE70022C2641A
:102E7C000265C26147F27E221A803FE0846C0C44EA
:102E8C00264A1268A51A013DA94205D9C464C16C31
:102E9C008A1A02658164C9E71144C164F7E700220C
:102EAC00C2640265C26147F27E221A8026E01D4A86
:102EBC0052F8342072B1D16C184D2D68491B116534
:102ECC00056DA9421CD2516909B10A46F2E741616C
:102EDC0082615061134A02EBC402918801319180E6
:102EEC00104A02EBC402D1889288914203D20D4958
:102EFC0001EBC404E280C66100221A8070BC7047EA
:102F0C00916921B18161426148619061E2E781611F
:102F1C0042619061034A42F83400DBE70427002049
:102F2C00B8390008D00F0020C3698BB100220265AC
:102F3C001A6882420DD0816942694A6102B191617D
:102F4C00002242618261C261C2649A88013A9A800D
:102F5C00704742691A60002AF2D000219161EFE7B4
:102F6C000023064A12889A4207D9054A02EBC3028B
:102F7C000021D18001339BB2F3E77047B8390008C8
:102F8C00D00F0020F8B5FDF7DFF8524A1378013363
:102F9C001370FDF7DDF800F089FB07464E490B680E
:102FAC005A1C0A604D4B1988B2FBF1F301FB132339
:102FBC009BB24B4A52F833400DE0E26C464B1B6817
:102FCC00D11A21659A4266D1002384F83630204606
:102FDC00FEF7C8F92C46002C5DD0656994F83630A4
:102FEC00013B062BF6D801A252F823F0C72F00089C
:102FFC00E12F000815300008E12F00084D300008C3
:10300C00E12F000869300008E26C334B1B68D11AC1
:10301C0021659A423FD10026E665A4F8606000F075
:10302C0045FB20642046FDF78EFE2046FEF79AF9FC
:10303C0084F83660032384F8353084F83460C9E7AB
:10304C00E26C254B1B68D11A21659A4223D10423CB
:10305C0084F836302046FFF767FFBBE7E26C1E4B67
:10306C001B68D11A21659A4215D10026E665A4F891
:10307C00606000F01BFB20642046FDF764FE2046D8
:10308C00FFF752FF042384F83630032384F83530DD
:10309C0084F834609EE700F009FBC71B114B1B68DA
:1030AC00BB4201D20F4B1F60FDF74EF8094A137853
:1030BC00013BDBB2137053B90B4B1B8823B1FDF7EB
:1030CC0047F8FEF709F8F8BDFDF742F8FBE7FDF706
:1030DC003FF8F8E76820002004270020B8390008E2
:1030EC00D00F0020F82700200828002000B583B05E
:1030FC000DF106036A4600210846FFF751F8BDF8AA
:10310C000630002BF4D1034B1B78012BF0D1FFF7C9
:10311C0039FFEDE77920002070B51546274B1B7859
:10312C006BB906460C46264B1B7863B9082938D870
:10313C00DFE801F00D370D370E3737370D0047F24A
:10314C007523138070BD46F663531380FAE720B3E2
:10315C00FCF7FAFF1A4A137801331370FCF7F8FFE7
:10316C00184B1868012380F836302B46224631461E
:10317C00FFF750FE2B88C3B9124B1868FDF772FF8E
:10318C00FCF7E2FF0E4A1378013B1370FCF7E0FFEB
:10319C00FDF78AFC00232B80D4E747F27E231380B3
:1031AC00D0E745F625631380CCE7FCF7CDFF044A46
:1031BC001378013B1370FCF7CBFFC3E78C24002082
:1031CC006820002060240020F8B5BDF81860079D29
:1031DC00504C24786CB9504C247874B906F00E0716
:1031EC00082F29D8DFE807F00D280D2811282828EA
:1031FC000D0047F275232B80F8BD46F663532B80E8
:10320C00FAE713B90AB901B990B136F01E0417D117
:10321C0016F0100F24D1B3F57A7F15D23B2A17D8AC
:10322C003B2919D8632822D947F278232B80E3E76E
:10323C0047F27E232B80DFE745F625632B80DBE707
:10324C0045F625632B80D7E747F27B232B80D3E70A
:10325C0047F27A232B80CFE747F279232B80CBE7F9
:10326C0042F20F74A1421ED8B0F57A7F1FD22B4CBC
:10327C002668C1EB011189004FF4616404FB001056
:10328C0002444FF4FA74B4FBF6F4234406FB03F443
:10329C00234BA3FB0434A40906FB02445CB947F29C
:1032AC007E232B80A8E747F279232B80A4E747F2F3
:1032BC0078232B80A0E7FCF747FF174A13780133DC
:1032CC001370FCF745FF174B1868012380F8363054
:1032DC002B463A462146FFF79DFD2B8883B9114BAF
:1032EC001868FDF7BFFEFCF72FFF0B4A1378013B64
:1032FC001370FCF72DFFFDF7D7FB00232B807BE72A
:10330C00FCF722FF044A1378013B1370FCF720FFF3
:10331C0072E700BF8C24002068200020A43900082C
:10332C00D34D62106024002000B587B0FDF712FB6E
:10333C0000F0BCF90A4B197801EB41010DF11603B1
:10334C00039302900022019200921346054800EB71
:10335C0081010548FEF74EF907B05DF804FB00BF8C
:10336C008C2300207C2000205449434B10B58AB09C
:10337C002C4B00221A602C4B1B68EBB12B4A1268A9
:10338C00B2FBF3F32A4A1360294B1A68294B1A60D3
:10339C000023294A1360294A1360294A12889A4249
:1033AC0013D9284901EBC3040022A280E28041F822
:1033BC00332001339BB2F0E71C4B1B68224AA2FB63
:1033CC000323DB081A4A1360DEE7204B1A686AB144
:1033DC001F4B19681F4B1B6899420BD31E4B1C7853
:1033EC003E2C0CD947F24633038006E047F24733B4
:1033FC00038002E047F2483303800AB010BD089006
:10340C000B2307930023069305930493039113490D
:10341C000968029101920094114A12491248FFF76F
:10342C0067F8EAE7F4270020BC390008A439000843
:10343C00FC2700200C280020582400207824002091
:10344C00CC39000898180020CDCCCCCCC039000861
:10345C00C8390008A0390008BA390008C439000876
:10346C00CD350008483A00089024002030B40223DF
:10347C0080F82A30012907D0036A43BB436A2E4ADD
:10348C0012681344836104E0436A2B4A12681344A4
:10349C0083618369294A1288B3FBF2F402FB14346A
:1034AC00A4B2274A52F83420B2B1234A15685B1BE8
:1034BC00C361234B53F83430E3B19A69521BDA6180
:1034CC00C1698A4229D21A698AB11346F4E71A4AA9
:1034DC00126813448361DCE7002303614361184BDA
:1034EC0043F8340003EBC40301229A8008E0026124
:1034FC0043611861124B03EBC4039A8801329A8022
:10350C000F4B03EBC403DA889B889A4203D20C4A14
:10351C0002EBC404E38030BC70475A6922B14261AB
:10352C00036110615861E5E7426103615861044B26
:10353C0043F83400DEE700BF58240020CC390008E3
:10354C00981800200023064A12889A4207D9054A87
:10355C0002EBC3020021D18001339BB2F3E7704729
:10356C00CC390008981800208169134B1A88B1FBDC
:10357C00F2F302FB13139BB2104A52F8332082422F
:10358C0011D0416902690A6102B15161012280F8CE
:10359C002A20002202614261084A02EBC3039A8886
:1035AC00013A9A8070470269044941F83320002A95
:1035BC00ECD000215161E9E7CC39000898180020C3
:1035CC0070B582B029E001212046FFF74FFF10E0D3
:1035DC002C46ACB12569A2691E4B1B689A420FD1CF
:1035EC002046FFF7C1FF238D022BECD0032384F878
:1035FC002A30A368002BEBD0E16820469847E7E718
:10360C0000F054F8861B0DF10600FDF7E7FD124B98
:10361C001B68B34201D2104B1E600DF106036A46C3
:10362C0000210846FEF7BCFD0DF10600FDF788FDF4
:10363C0000F03CF8064607490B685A1C0A60074B19
:10364C001988B2FBF1F301FB13239BB2044A52F825
:10365C003340BEE75824002078240020CC390008E1
:10366C009818002000B587B001A8FCF751FE02980D
:10367C0007B05DF804FB000008B5FFF7F3FF084A3C
:10368C00136843F080731360064B00221A60064ADD
:10369C00136843F001031360FDF776F808BD00BF13
:1036AC00FCED00E0041000E0001000E0014B186895
:1036BC00704700BF041000E008B54FF4A060FCF7A1
:1036CC009BFDFCF74DFF4FF41650FCF763FF08BD54
:1036DC0030B58DB0FFF7F0FF0DF12E052846FDF744
:1036EC006FFBFCF731FD1B4C237801332370FCF787
:1036FC002FFD08950322079200230693059304934C
:10370C004FF40071039133210291134901910092FE
:10371C00124A13491348FEF7EBFEFCF715FD23780C
:10372C00013BDBB223708BB90F4B1B885BB1FCF7F1
:10373C000FFDFDF7D1FC0D48FDF724F90DF12E001E
:10374C00FDF71AFAFEE7FCF703FDF4E7FCF700FDC2
:10375C00F1E700BF68200020F4020020AD0600084D
:10376C00603A0008F40A002008280020407E05007A
:10377C007047FEE7FEE7FEE7FEE770477047000084
:10378C0082B00023019300932C4A136843F48033D6
:10379C0013602A4B1B6803F400330093019B013325
:1037AC000193009B1BB9019BB3F5A06FF1D1234B87
:1037BC001B6813F4003F06D001230093009B012BE0
:1037CC0004D002B0704700230093F7E71C4B1A6833
:1037DC0042F010021A601A6822F003021A601A688A
:1037EC0042F002021A60A3F580535A685A605A6874
:1037FC005A605A6842F480625A605A6822F47C1209
:10380C005A605A6842F4E8125A601A6842F08072A0
:10381C001A600A4B1B6813F0007FFAD0074B5A68EA
:10382C0022F003025A605A6842F002025A60034BBB
:10383C005B6803F00C03082BF9D1C2E700100240BF
:10384C000020024008B5FFF79BFF08BD08B5104BE0
:10385C001A6842F001021A6059680E4A0A405A600E
:10386C001A6822F0847222F480321A601A6822F4E8
:10387C0080221A605A6822F4FE025A604FF41F022A
:10388C009A60FFF7DFFF044B4FF000629A6008BDAF
:10389C00001002400000FFF800ED00E0002103E002
:1038AC000B4B5B58435004310A480B4B42189A425D
:1038BC00F6D30A4A02E0002342F8043B084B9A4232
:1038CC00F9D3FFF7C3FF00F00FF8FFF701FF7047C4
:1038DC00743A00080000002014000020140000209E
:1038EC0010280020FEE7000070B500260C4D0D4C92
:1038FC00641BA410A64209D100F01AF800260A4D48
:10390C000A4C641BA410A64205D170BD55F8043BAB
:10391C0098470136EEE755F8043B98470136F2E735
:10392C006C3A00086C3A00086C3A0008703A0008CF
:10393C00F8B500BFF8BC08BC9E467047F8B500BF90
:08394C00F8BC08BC9E46704760
:103954006C656430207461736B00000020190020D2
:1039640080000000601E00200C00000080000000A9
:10397400201D00200A000000D00B00200C000000D5
:10398400800000005810002064003E000A0000007F
:10399400D00D00200C00000080000000400000005A
:1039A400C800000001000000201B00200C000000E3
:1039B400800000001100020064000000981600203E
:1039C4000C000000800000001100000075432F4F20
:1039D400532D4949492049646C65205461736B0037
:1039E4005461736B205100005461736B2053656DF7
:1039F400000000002000000075432F4F532D49495B
:103A04004920495352205175657565205461736B83
:103A14000000000075432F4F532D4949492053742A
:103A24006174205461736B003F5461736B00000038
:103A340075432F4F532D494949205469636B2054D2
:103A440061736B0075432F4F532D494949205469C5
:103A54006D6572205461736B0000000073746172B1
:083A640074207461736B000013
:043A6C00310100081C
:043A70000D0100083C
:103A7400020406080000000001020304010203041A
:043A84000607080920
:04000005080038A90E
:00000001FF
